{
  "_format": "hh-sol-artifact-1",
  "contractName": "MyEpicNFT",
  "sourceName": "contracts/MyEpicNFT.sol",
  "abi": [
    {
      "inputs": [],
      "stateMutability": "nonpayable",
      "type": "constructor"
    },
    {
      "anonymous": false,
      "inputs": [
        {
          "indexed": true,
          "internalType": "address",
          "name": "owner",
          "type": "address"
        },
        {
          "indexed": true,
          "internalType": "address",
          "name": "approved",
          "type": "address"
        },
        {
          "indexed": true,
          "internalType": "uint256",
          "name": "tokenId",
          "type": "uint256"
        }
      ],
      "name": "Approval",
      "type": "event"
    },
    {
      "anonymous": false,
      "inputs": [
        {
          "indexed": true,
          "internalType": "address",
          "name": "owner",
          "type": "address"
        },
        {
          "indexed": true,
          "internalType": "address",
          "name": "operator",
          "type": "address"
        },
        {
          "indexed": false,
          "internalType": "bool",
          "name": "approved",
          "type": "bool"
        }
      ],
      "name": "ApprovalForAll",
      "type": "event"
    },
    {
      "anonymous": false,
      "inputs": [
        {
          "indexed": false,
          "internalType": "address",
          "name": "sender",
          "type": "address"
        },
        {
          "indexed": false,
          "internalType": "uint256",
          "name": "tokenId",
          "type": "uint256"
        }
      ],
      "name": "NewEpicNFTMinted",
      "type": "event"
    },
    {
      "anonymous": false,
      "inputs": [
        {
          "indexed": true,
          "internalType": "address",
          "name": "from",
          "type": "address"
        },
        {
          "indexed": true,
          "internalType": "address",
          "name": "to",
          "type": "address"
        },
        {
          "indexed": true,
          "internalType": "uint256",
          "name": "tokenId",
          "type": "uint256"
        }
      ],
      "name": "Transfer",
      "type": "event"
    },
    {
      "inputs": [
        {
          "internalType": "address",
          "name": "to",
          "type": "address"
        },
        {
          "internalType": "uint256",
          "name": "tokenId",
          "type": "uint256"
        }
      ],
      "name": "approve",
      "outputs": [],
      "stateMutability": "nonpayable",
      "type": "function"
    },
    {
      "inputs": [
        {
          "internalType": "address",
          "name": "owner",
          "type": "address"
        }
      ],
      "name": "balanceOf",
      "outputs": [
        {
          "internalType": "uint256",
          "name": "",
          "type": "uint256"
        }
      ],
      "stateMutability": "view",
      "type": "function"
    },
    {
      "inputs": [
        {
          "internalType": "uint256",
          "name": "tokenId",
          "type": "uint256"
        }
      ],
      "name": "getApproved",
      "outputs": [
        {
          "internalType": "address",
          "name": "",
          "type": "address"
        }
      ],
      "stateMutability": "view",
      "type": "function"
    },
    {
      "inputs": [],
      "name": "getTotalNFTsMinted",
      "outputs": [
        {
          "internalType": "uint256",
          "name": "",
          "type": "uint256"
        }
      ],
      "stateMutability": "view",
      "type": "function"
    },
    {
      "inputs": [
        {
          "internalType": "address",
          "name": "owner",
          "type": "address"
        },
        {
          "internalType": "address",
          "name": "operator",
          "type": "address"
        }
      ],
      "name": "isApprovedForAll",
      "outputs": [
        {
          "internalType": "bool",
          "name": "",
          "type": "bool"
        }
      ],
      "stateMutability": "view",
      "type": "function"
    },
    {
      "inputs": [],
      "name": "makeAnEpicNFT",
      "outputs": [],
      "stateMutability": "nonpayable",
      "type": "function"
    },
    {
      "inputs": [],
      "name": "name",
      "outputs": [
        {
          "internalType": "string",
          "name": "",
          "type": "string"
        }
      ],
      "stateMutability": "view",
      "type": "function"
    },
    {
      "inputs": [
        {
          "internalType": "uint256",
          "name": "tokenId",
          "type": "uint256"
        }
      ],
      "name": "ownerOf",
      "outputs": [
        {
          "internalType": "address",
          "name": "",
          "type": "address"
        }
      ],
      "stateMutability": "view",
      "type": "function"
    },
    {
      "inputs": [
        {
          "internalType": "uint256",
          "name": "tokenId",
          "type": "uint256"
        }
      ],
      "name": "pickRandomColor",
      "outputs": [
        {
          "internalType": "string",
          "name": "",
          "type": "string"
        }
      ],
      "stateMutability": "view",
      "type": "function"
    },
    {
      "inputs": [
        {
          "internalType": "uint256",
          "name": "tokenId",
          "type": "uint256"
        }
      ],
      "name": "pickRandomFirstWord",
      "outputs": [
        {
          "internalType": "string",
          "name": "",
          "type": "string"
        }
      ],
      "stateMutability": "view",
      "type": "function"
    },
    {
      "inputs": [
        {
          "internalType": "uint256",
          "name": "tokenId",
          "type": "uint256"
        }
      ],
      "name": "pickRandomSecondWord",
      "outputs": [
        {
          "internalType": "string",
          "name": "",
          "type": "string"
        }
      ],
      "stateMutability": "view",
      "type": "function"
    },
    {
      "inputs": [
        {
          "internalType": "uint256",
          "name": "tokenId",
          "type": "uint256"
        }
      ],
      "name": "pickRandomThirdWord",
      "outputs": [
        {
          "internalType": "string",
          "name": "",
          "type": "string"
        }
      ],
      "stateMutability": "view",
      "type": "function"
    },
    {
      "inputs": [
        {
          "internalType": "address",
          "name": "from",
          "type": "address"
        },
        {
          "internalType": "address",
          "name": "to",
          "type": "address"
        },
        {
          "internalType": "uint256",
          "name": "tokenId",
          "type": "uint256"
        }
      ],
      "name": "safeTransferFrom",
      "outputs": [],
      "stateMutability": "nonpayable",
      "type": "function"
    },
    {
      "inputs": [
        {
          "internalType": "address",
          "name": "from",
          "type": "address"
        },
        {
          "internalType": "address",
          "name": "to",
          "type": "address"
        },
        {
          "internalType": "uint256",
          "name": "tokenId",
          "type": "uint256"
        },
        {
          "internalType": "bytes",
          "name": "_data",
          "type": "bytes"
        }
      ],
      "name": "safeTransferFrom",
      "outputs": [],
      "stateMutability": "nonpayable",
      "type": "function"
    },
    {
      "inputs": [
        {
          "internalType": "address",
          "name": "operator",
          "type": "address"
        },
        {
          "internalType": "bool",
          "name": "approved",
          "type": "bool"
        }
      ],
      "name": "setApprovalForAll",
      "outputs": [],
      "stateMutability": "nonpayable",
      "type": "function"
    },
    {
      "inputs": [
        {
          "internalType": "bytes4",
          "name": "interfaceId",
          "type": "bytes4"
        }
      ],
      "name": "supportsInterface",
      "outputs": [
        {
          "internalType": "bool",
          "name": "",
          "type": "bool"
        }
      ],
      "stateMutability": "view",
      "type": "function"
    },
    {
      "inputs": [],
      "name": "symbol",
      "outputs": [
        {
          "internalType": "string",
          "name": "",
          "type": "string"
        }
      ],
      "stateMutability": "view",
      "type": "function"
    },
    {
      "inputs": [
        {
          "internalType": "uint256",
          "name": "tokenId",
          "type": "uint256"
        }
      ],
      "name": "tokenURI",
      "outputs": [
        {
          "internalType": "string",
          "name": "",
          "type": "string"
        }
      ],
      "stateMutability": "view",
      "type": "function"
    },
    {
      "inputs": [
        {
          "internalType": "address",
          "name": "from",
          "type": "address"
        },
        {
          "internalType": "address",
          "name": "to",
          "type": "address"
        },
        {
          "internalType": "uint256",
          "name": "tokenId",
          "type": "uint256"
        }
      ],
      "name": "transferFrom",
      "outputs": [],
      "stateMutability": "nonpayable",
      "type": "function"
    }
  ],
  "bytecode": "0x608060405260405180610100016040528060d381526020016200485a60d3913960089080519060200190620000369291906200082c565b506040518060800160405280605681526020016200492d6056913960099080519060200190620000689291906200082c565b506040518060c001604052806040518060400160405280600881526020017f436865657266756c00000000000000000000000000000000000000000000000081525081526020016040518060400160405280600681526020017f4661756c7479000000000000000000000000000000000000000000000000000081525081526020016040518060400160405280600681526020017f536e65616b79000000000000000000000000000000000000000000000000000081525081526020016040518060400160405280600881526020017f48616c6c6f77656400000000000000000000000000000000000000000000000081525081526020016040518060400160405280600581526020017f536f6c696400000000000000000000000000000000000000000000000000000081525081526020016040518060400160405280600881526020017f506f737369626c65000000000000000000000000000000000000000000000000815250815250600a906006620001e6929190620008bd565b506040518060c001604052806040518060400160405280600a81526020017f4368616e676561626c650000000000000000000000000000000000000000000081525081526020016040518060400160405280600881526020017f4162756e64616e7400000000000000000000000000000000000000000000000081525081526020016040518060400160405280600581526020017f4a6164656400000000000000000000000000000000000000000000000000000081525081526020016040518060400160405280600b81526020017f4f75747374616e64696e6700000000000000000000000000000000000000000081525081526020016040518060400160405280600981526020017f417661696c61626c65000000000000000000000000000000000000000000000081525081526020016040518060400160405280600681526020017f46696c7468790000000000000000000000000000000000000000000000000000815250815250600b90600662000364929190620008bd565b506040518060c001604052806040518060400160405280600481526020017f526f6f740000000000000000000000000000000000000000000000000000000081525081526020016040518060400160405280600681526020017f457870657274000000000000000000000000000000000000000000000000000081525081526020016040518060400160405280600481526020017f54656e740000000000000000000000000000000000000000000000000000000081525081526020016040518060400160405280600581526020017f4e696e6a6100000000000000000000000000000000000000000000000000000081525081526020016040518060400160405280600881526020017f476172676f796c6500000000000000000000000000000000000000000000000081525081526020016040518060400160405280600781526020017f4c61647962756700000000000000000000000000000000000000000000000000815250815250600c906006620004e2929190620008bd565b506040518060c001604052806040518060400160405280600381526020017f726564000000000000000000000000000000000000000000000000000000000081525081526020016040518060400160405280600781526020017f233038433241380000000000000000000000000000000000000000000000000081525081526020016040518060400160405280600581526020017f626c61636b00000000000000000000000000000000000000000000000000000081525081526020016040518060400160405280600681526020017f79656c6c6f77000000000000000000000000000000000000000000000000000081525081526020016040518060400160405280600481526020017f626c75650000000000000000000000000000000000000000000000000000000081525081526020016040518060400160405280600581526020017f677265656e000000000000000000000000000000000000000000000000000000815250815250600d90600662000660929190620008bd565b503480156200066e57600080fd5b506040518060400160405280600981526020017f5371756172654e465400000000000000000000000000000000000000000000008152506040518060400160405280600681526020017f53515541524500000000000000000000000000000000000000000000000000008152508160009080519060200190620006f39291906200082c565b5080600190805190602001906200070c9291906200082c565b5050506200075a6040518060400160405280601e81526020017f54686973206973206d79204e465420636f6e74726163742e20576f61682100008152506200076060201b620012c61760201c565b62000ade565b6200080081604051602401620007779190620009f2565b6040516020818303038152906040527f41304fac000000000000000000000000000000000000000000000000000000007bffffffffffffffffffffffffffffffffffffffffffffffffffffffff19166020820180517bffffffffffffffffffffffffffffffffffffffffffffffffffffffff83818316178352505050506200080360201b60201c565b50565b60008151905060006a636f6e736f6c652e6c6f679050602083016000808483855afa5050505050565b8280546200083a9062000a68565b90600052602060002090601f0160209004810192826200085e5760008555620008aa565b82601f106200087957805160ff1916838001178555620008aa565b82800160010185558215620008aa579182015b82811115620008a95782518255916020019190600101906200088c565b5b509050620008b9919062000924565b5090565b82805482825590600052602060002090810192821562000911579160200282015b8281111562000910578251829080519060200190620008ff9291906200082c565b5091602001919060010190620008de565b5b50905062000920919062000943565b5090565b5b808211156200093f57600081600090555060010162000925565b5090565b5b808211156200096757600081816200095d91906200096b565b5060010162000944565b5090565b508054620009799062000a68565b6000825580601f106200098d5750620009ae565b601f016020900490600052602060002090810190620009ad919062000924565b5b50565b6000620009be8262000a16565b620009ca818562000a21565b9350620009dc81856020860162000a32565b620009e78162000acd565b840191505092915050565b6000602082019050818103600083015262000a0e8184620009b1565b905092915050565b600081519050919050565b600082825260208201905092915050565b60005b8381101562000a5257808201518184015260208101905062000a35565b8381111562000a62576000848401525b50505050565b6000600282049050600182168062000a8157607f821691505b6020821081141562000a985762000a9762000a9e565b5b50919050565b7f4e487b7100000000000000000000000000000000000000000000000000000000600052602260045260246000fd5b6000601f19601f8301169050919050565b613d6c8062000aee6000396000f3fe608060405234801561001057600080fd5b50600436106101215760003560e01c806370a08231116100ad578063b88d4fde11610071578063b88d4fde14610340578063c575757a1461035c578063c87b56dd1461038c578063de9d132f146103bc578063e985e9c5146103c657610121565b806370a082311461028857806395d89b41146102b8578063a22cb465146102d6578063b187301f146102f2578063b4c3b8be1461032257610121565b806323b872dd116100f457806323b872dd146101c05780632de38d68146101dc57806342842e0e1461020c578063514dc8c6146102285780636352211e1461025857610121565b806301ffc9a71461012657806306fdde0314610156578063081812fc14610174578063095ea7b3146101a4575b600080fd5b610140600480360381019061013b91906126f2565b6103f6565b60405161014d9190612ec3565b60405180910390f35b61015e6104d8565b60405161016b9190612ede565b60405180910390f35b61018e60048036038101906101899190612744565b61056a565b60405161019b9190612e33565b60405180910390f35b6101be60048036038101906101b991906126b6565b6105ef565b005b6101da60048036038101906101d591906125b0565b610707565b005b6101f660048036038101906101f19190612744565b610767565b6040516102039190612ede565b60405180910390f35b610226600480360381019061022191906125b0565b610885565b005b610242600480360381019061023d9190612744565b6108a5565b60405161024f9190612ede565b60405180910390f35b610272600480360381019061026d9190612744565b6109c3565b60405161027f9190612e33565b60405180910390f35b6102a2600480360381019061029d919061254b565b610a75565b6040516102af919061315e565b60405180910390f35b6102c0610b2d565b6040516102cd9190612ede565b60405180910390f35b6102f060048036038101906102eb919061267a565b610bbf565b005b61030c60048036038101906103079190612744565b610bd5565b6040516103199190612ede565b60405180910390f35b61032a610cf3565b604051610337919061315e565b60405180910390f35b61035a600480360381019061035591906125ff565b610d04565b005b61037660048036038101906103719190612744565b610d66565b6040516103839190612ede565b60405180910390f35b6103a660048036038101906103a19190612744565b610e84565b6040516103b39190612ede565b60405180910390f35b6103c4610fd6565b005b6103e060048036038101906103db9190612574565b611232565b6040516103ed9190612ec3565b60405180910390f35b60007f80ac58cd000000000000000000000000000000000000000000000000000000007bffffffffffffffffffffffffffffffffffffffffffffffffffffffff1916827bffffffffffffffffffffffffffffffffffffffffffffffffffffffff191614806104c157507f5b5e139f000000000000000000000000000000000000000000000000000000007bffffffffffffffffffffffffffffffffffffffffffffffffffffffff1916827bffffffffffffffffffffffffffffffffffffffffffffffffffffffff1916145b806104d157506104d08261135f565b5b9050919050565b6060600080546104e7906133f2565b80601f0160208091040260200160405190810160405280929190818152602001828054610513906133f2565b80156105605780601f1061053557610100808354040283529160200191610560565b820191906000526020600020905b81548152906001019060200180831161054357829003601f168201915b5050505050905090565b6000610575826113c9565b6105b4576040517f08c379a00000000000000000000000000000000000000000000000000000000081526004016105ab906130de565b60405180910390fd5b6004600083815260200190815260200160002060009054906101000a900473ffffffffffffffffffffffffffffffffffffffff169050919050565b60006105fa826109c3565b90508073ffffffffffffffffffffffffffffffffffffffff168373ffffffffffffffffffffffffffffffffffffffff16141561066b576040517f08c379a00000000000000000000000000000000000000000000000000000000081526004016106629061311e565b60405180910390fd5b8073ffffffffffffffffffffffffffffffffffffffff1661068a611435565b73ffffffffffffffffffffffffffffffffffffffff1614806106b957506106b8816106b3611435565b611232565b5b6106f8576040517f08c379a00000000000000000000000000000000000000000000000000000000081526004016106ef9061301e565b60405180910390fd5b610702838361143d565b505050565b610718610712611435565b826114f6565b610757576040517f08c379a000000000000000000000000000000000000000000000000000000000815260040161074e9061313e565b60405180910390fd5b6107628383836115d4565b505050565b6060600061079b6107778461183b565b6040516020016107879190612dcd565b6040516020818303038152906040526119e8565b9050600a80549050816107ae919061349e565b9050600a81815481106107ea577f4e487b7100000000000000000000000000000000000000000000000000000000600052603260045260246000fd5b9060005260206000200180546107ff906133f2565b80601f016020809104026020016040519081016040528092919081815260200182805461082b906133f2565b80156108785780601f1061084d57610100808354040283529160200191610878565b820191906000526020600020905b81548152906001019060200180831161085b57829003601f168201915b5050505050915050919050565b6108a083838360405180602001604052806000815250610d04565b505050565b606060006108d96108b58461183b565b6040516020016108c59190612e11565b6040516020818303038152906040526119e8565b9050600d80549050816108ec919061349e565b9050600d8181548110610928577f4e487b7100000000000000000000000000000000000000000000000000000000600052603260045260246000fd5b90600052602060002001805461093d906133f2565b80601f0160208091040260200160405190810160405280929190818152602001828054610969906133f2565b80156109b65780601f1061098b576101008083540402835291602001916109b6565b820191906000526020600020905b81548152906001019060200180831161099957829003601f168201915b5050505050915050919050565b6000806002600084815260200190815260200160002060009054906101000a900473ffffffffffffffffffffffffffffffffffffffff169050600073ffffffffffffffffffffffffffffffffffffffff168173ffffffffffffffffffffffffffffffffffffffff161415610a6c576040517f08c379a0000000000000000000000000000000000000000000000000000000008152600401610a639061305e565b60405180910390fd5b80915050919050565b60008073ffffffffffffffffffffffffffffffffffffffff168273ffffffffffffffffffffffffffffffffffffffff161415610ae6576040517f08c379a0000000000000000000000000000000000000000000000000000000008152600401610add9061303e565b60405180910390fd5b600360008373ffffffffffffffffffffffffffffffffffffffff1673ffffffffffffffffffffffffffffffffffffffff168152602001908152602001600020549050919050565b606060018054610b3c906133f2565b80601f0160208091040260200160405190810160405280929190818152602001828054610b68906133f2565b8015610bb55780601f10610b8a57610100808354040283529160200191610bb5565b820191906000526020600020905b815481529060010190602001808311610b9857829003601f168201915b5050505050905090565b610bd1610bca611435565b8383611a1b565b5050565b60606000610c09610be58461183b565b604051602001610bf59190612d66565b6040516020818303038152906040526119e8565b9050600b8054905081610c1c919061349e565b9050600b8181548110610c58577f4e487b7100000000000000000000000000000000000000000000000000000000600052603260045260246000fd5b906000526020600020018054610c6d906133f2565b80601f0160208091040260200160405190810160405280929190818152602001828054610c99906133f2565b8015610ce65780601f10610cbb57610100808354040283529160200191610ce6565b820191906000526020600020905b815481529060010190602001808311610cc957829003601f168201915b5050505050915050919050565b6000610cff6007611b88565b905090565b610d15610d0f611435565b836114f6565b610d54576040517f08c379a0000000000000000000000000000000000000000000000000000000008152600401610d4b9061313e565b60405180910390fd5b610d6084848484611b96565b50505050565b60606000610d9a610d768461183b565b604051602001610d869190612d44565b6040516020818303038152906040526119e8565b9050600c8054905081610dad919061349e565b9050600c8181548110610de9577f4e487b7100000000000000000000000000000000000000000000000000000000600052603260045260246000fd5b906000526020600020018054610dfe906133f2565b80601f0160208091040260200160405190810160405280929190818152602001828054610e2a906133f2565b8015610e775780601f10610e4c57610100808354040283529160200191610e77565b820191906000526020600020905b815481529060010190602001808311610e5a57829003601f168201915b5050505050915050919050565b6060610e8f826113c9565b610ece576040517f08c379a0000000000000000000000000000000000000000000000000000000008152600401610ec5906130be565b60405180910390fd5b6000600660008481526020019081526020016000208054610eee906133f2565b80601f0160208091040260200160405190810160405280929190818152602001828054610f1a906133f2565b8015610f675780601f10610f3c57610100808354040283529160200191610f67565b820191906000526020600020905b815481529060010190602001808311610f4a57829003601f168201915b505050505090506000610f78611bf2565b9050600081511415610f8e578192505050610fd1565b600082511115610fc3578082604051602001610fab929190612c84565b60405160208183030381529060405292505050610fd1565b610fcc84611c09565b925050505b919050565b6000610fe26007611b88565b9050600a8110611027576040517f08c379a000000000000000000000000000000000000000000000000000000000815260040161101e90612f3e565b60405180910390fd5b600061103282610767565b9050600061103f83610bd5565b9050600061104c84610d66565b9050600083838360405160200161106593929190612ca8565b60405160208183030381529060405290506000611081866108a5565b9050600060088260098560405160200161109e9493929190612cd9565b604051602081830303815290604052905060006110e3846110be84611cb0565b6040516020016110cf929190612d88565b604051602081830303815290604052611cb0565b90506000816040516020016110f89190612def565b60405160208183030381529060405290506111476040518060400160405280601581526020017f0a2d2d2d2d2d2d2d2d2d2d2d2d2d2d2d2d2d2d2d2d00000000000000000000008152506112c6565b61116f8160405160200161115b9190612d22565b6040516020818303038152906040526112c6565b6111ad6040518060400160405280601581526020017f2d2d2d2d2d2d2d2d2d2d2d2d2d2d2d2d2d2d2d2d0a00000000000000000000008152506112c6565b6111b7338a611e6e565b6111c18982611e8c565b6111cb6007611f00565b6111ee604051806060016040528060258152602001613cd2602591398a33611f16565b7febb98688741ffa4c7589bf325de30cf7becb63de567842e1ccdb6cb949fdc82c338a60405161121f929190612e9a565b60405180910390a1505050505050505050565b6000600560008473ffffffffffffffffffffffffffffffffffffffff1673ffffffffffffffffffffffffffffffffffffffff16815260200190815260200160002060008373ffffffffffffffffffffffffffffffffffffffff1673ffffffffffffffffffffffffffffffffffffffff16815260200190815260200160002060009054906101000a900460ff16905092915050565b61135c816040516024016112da9190612ede565b6040516020818303038152906040527f41304fac000000000000000000000000000000000000000000000000000000007bffffffffffffffffffffffffffffffffffffffffffffffffffffffff19166020820180517bffffffffffffffffffffffffffffffffffffffffffffffffffffffff8381831617835250505050611fb5565b50565b60007f01ffc9a7000000000000000000000000000000000000000000000000000000007bffffffffffffffffffffffffffffffffffffffffffffffffffffffff1916827bffffffffffffffffffffffffffffffffffffffffffffffffffffffff1916149050919050565b60008073ffffffffffffffffffffffffffffffffffffffff166002600084815260200190815260200160002060009054906101000a900473ffffffffffffffffffffffffffffffffffffffff1673ffffffffffffffffffffffffffffffffffffffff1614159050919050565b600033905090565b816004600083815260200190815260200160002060006101000a81548173ffffffffffffffffffffffffffffffffffffffff021916908373ffffffffffffffffffffffffffffffffffffffff160217905550808273ffffffffffffffffffffffffffffffffffffffff166114b0836109c3565b73ffffffffffffffffffffffffffffffffffffffff167f8c5be1e5ebec7d5bd14f71427d1e84f3dd0314c0f7b2291e5b200ac8c7c3b92560405160405180910390a45050565b6000611501826113c9565b611540576040517f08c379a000000000000000000000000000000000000000000000000000000000815260040161153790612ffe565b60405180910390fd5b600061154b836109c3565b90508073ffffffffffffffffffffffffffffffffffffffff168473ffffffffffffffffffffffffffffffffffffffff1614806115ba57508373ffffffffffffffffffffffffffffffffffffffff166115a28461056a565b73ffffffffffffffffffffffffffffffffffffffff16145b806115cb57506115ca8185611232565b5b91505092915050565b8273ffffffffffffffffffffffffffffffffffffffff166115f4826109c3565b73ffffffffffffffffffffffffffffffffffffffff161461164a576040517f08c379a000000000000000000000000000000000000000000000000000000000815260040161164190612f7e565b60405180910390fd5b600073ffffffffffffffffffffffffffffffffffffffff168273ffffffffffffffffffffffffffffffffffffffff1614156116ba576040517f08c379a00000000000000000000000000000000000000000000000000000000081526004016116b190612fbe565b60405180910390fd5b6116c5838383611fde565b6116d060008261143d565b6001600360008573ffffffffffffffffffffffffffffffffffffffff1673ffffffffffffffffffffffffffffffffffffffff16815260200190815260200160002060008282546117209190613308565b925050819055506001600360008473ffffffffffffffffffffffffffffffffffffffff1673ffffffffffffffffffffffffffffffffffffffff16815260200190815260200160002060008282546117779190613227565b92505081905550816002600083815260200190815260200160002060006101000a81548173ffffffffffffffffffffffffffffffffffffffff021916908373ffffffffffffffffffffffffffffffffffffffff160217905550808273ffffffffffffffffffffffffffffffffffffffff168473ffffffffffffffffffffffffffffffffffffffff167fddf252ad1be2c89b69c2b068fc378daa952ba7f163c4a11628f55a4df523b3ef60405160405180910390a4611836838383611fe3565b505050565b60606000821415611883576040518060400160405280600181526020017f300000000000000000000000000000000000000000000000000000000000000081525090506119e3565b600082905060005b600082146118b557808061189e90613455565b915050600a826118ae919061327d565b915061188b565b60008167ffffffffffffffff8111156118f7577f4e487b7100000000000000000000000000000000000000000000000000000000600052604160045260246000fd5b6040519080825280601f01601f1916602001820160405280156119295781602001600182028036833780820191505090505b5090505b600085146119dc576001826119429190613308565b9150600a85611951919061349e565b603061195d9190613227565b60f81b818381518110611999577f4e487b7100000000000000000000000000000000000000000000000000000000600052603260045260246000fd5b60200101907effffffffffffffffffffffffffffffffffffffffffffffffffffffffffffff1916908160001a905350600a856119d5919061327d565b945061192d565b8093505050505b919050565b6000816040516020016119fb9190612c6d565b6040516020818303038152906040528051906020012060001c9050919050565b8173ffffffffffffffffffffffffffffffffffffffff168373ffffffffffffffffffffffffffffffffffffffff161415611a8a576040517f08c379a0000000000000000000000000000000000000000000000000000000008152600401611a8190612fde565b60405180910390fd5b80600560008573ffffffffffffffffffffffffffffffffffffffff1673ffffffffffffffffffffffffffffffffffffffff16815260200190815260200160002060008473ffffffffffffffffffffffffffffffffffffffff1673ffffffffffffffffffffffffffffffffffffffff16815260200190815260200160002060006101000a81548160ff0219169083151502179055508173ffffffffffffffffffffffffffffffffffffffff168373ffffffffffffffffffffffffffffffffffffffff167f17307eab39ab6107e8899845ad3d59bd9653f200f220920489ca2b5937696c3183604051611b7b9190612ec3565b60405180910390a3505050565b600081600001549050919050565b611ba18484846115d4565b611bad84848484611fe8565b611bec576040517f08c379a0000000000000000000000000000000000000000000000000000000008152600401611be390612f5e565b60405180910390fd5b50505050565b606060405180602001604052806000815250905090565b6060611c14826113c9565b611c53576040517f08c379a0000000000000000000000000000000000000000000000000000000008152600401611c4a906130fe565b60405180910390fd5b6000611c5d611bf2565b90506000815111611c7d5760405180602001604052806000815250611ca8565b80611c878461183b565b604051602001611c98929190612c84565b6040516020818303038152906040525b915050919050565b60606000825190506000811415611cd95760405180602001604052806000815250915050611e69565b60006003600283611cea9190613227565b611cf4919061327d565b6004611d0091906132ae565b90506000602082611d119190613227565b67ffffffffffffffff811115611d50577f4e487b7100000000000000000000000000000000000000000000000000000000600052604160045260246000fd5b6040519080825280601f01601f191660200182016040528015611d825781602001600182028036833780820191505090505b5090506000604051806060016040528060408152602001613cf7604091399050600181016020830160005b86811015611e265760038101905062ffffff818a015116603f8160121c168401518060081b905060ff603f83600c1c1686015116810190508060081b905060ff603f8360061c1686015116810190508060081b905060ff603f831686015116810190508060e01b90508084526004840193505050611dad565b506003860660018114611e405760028114611e5057611e5b565b613d3d60f01b6002830352611e5b565b603d60f81b60018303525b508484525050819450505050505b919050565b611e8882826040518060200160405280600081525061217f565b5050565b611e95826113c9565b611ed4576040517f08c379a0000000000000000000000000000000000000000000000000000000008152600401611ecb9061307e565b60405180910390fd5b80600660008481526020019081526020016000209080519060200190611efb9291906123d7565b505050565b6001816000016000828254019250508190555050565b611fb0838383604051602401611f2e93929190612f00565b6040516020818303038152906040527fe3849f79000000000000000000000000000000000000000000000000000000007bffffffffffffffffffffffffffffffffffffffffffffffffffffffff19166020820180517bffffffffffffffffffffffffffffffffffffffffffffffffffffffff8381831617835250505050611fb5565b505050565b60008151905060006a636f6e736f6c652e6c6f679050602083016000808483855afa5050505050565b505050565b505050565b60006120098473ffffffffffffffffffffffffffffffffffffffff166121da565b15612172578373ffffffffffffffffffffffffffffffffffffffff1663150b7a02612032611435565b8786866040518563ffffffff1660e01b81526004016120549493929190612e4e565b602060405180830381600087803b15801561206e57600080fd5b505af192505050801561209f57506040513d601f19601f8201168201806040525081019061209c919061271b565b60015b612122573d80600081146120cf576040519150601f19603f3d011682016040523d82523d6000602084013e6120d4565b606091505b5060008151141561211a576040517f08c379a000000000000000000000000000000000000000000000000000000000815260040161211190612f5e565b60405180910390fd5b805181602001fd5b63150b7a0260e01b7bffffffffffffffffffffffffffffffffffffffffffffffffffffffff1916817bffffffffffffffffffffffffffffffffffffffffffffffffffffffff191614915050612177565b600190505b949350505050565b61218983836121fd565b6121966000848484611fe8565b6121d5576040517f08c379a00000000000000000000000000000000000000000000000000000000081526004016121cc90612f5e565b60405180910390fd5b505050565b6000808273ffffffffffffffffffffffffffffffffffffffff163b119050919050565b600073ffffffffffffffffffffffffffffffffffffffff168273ffffffffffffffffffffffffffffffffffffffff16141561226d576040517f08c379a00000000000000000000000000000000000000000000000000000000081526004016122649061309e565b60405180910390fd5b612276816113c9565b156122b6576040517f08c379a00000000000000000000000000000000000000000000000000000000081526004016122ad90612f9e565b60405180910390fd5b6122c260008383611fde565b6001600360008473ffffffffffffffffffffffffffffffffffffffff1673ffffffffffffffffffffffffffffffffffffffff16815260200190815260200160002060008282546123129190613227565b92505081905550816002600083815260200190815260200160002060006101000a81548173ffffffffffffffffffffffffffffffffffffffff021916908373ffffffffffffffffffffffffffffffffffffffff160217905550808273ffffffffffffffffffffffffffffffffffffffff16600073ffffffffffffffffffffffffffffffffffffffff167fddf252ad1be2c89b69c2b068fc378daa952ba7f163c4a11628f55a4df523b3ef60405160405180910390a46123d360008383611fe3565b5050565b8280546123e3906133f2565b90600052602060002090601f016020900481019282612405576000855561244c565b82601f1061241e57805160ff191683800117855561244c565b8280016001018555821561244c579182015b8281111561244b578251825591602001919060010190612430565b5b509050612459919061245d565b5090565b5b8082111561247657600081600090555060010161245e565b5090565b600061248d6124888461319e565b613179565b9050828152602081018484840111156124a557600080fd5b6124b08482856133b0565b509392505050565b6000813590506124c781613c75565b92915050565b6000813590506124dc81613c8c565b92915050565b6000813590506124f181613ca3565b92915050565b60008151905061250681613ca3565b92915050565b600082601f83011261251d57600080fd5b813561252d84826020860161247a565b91505092915050565b60008135905061254581613cba565b92915050565b60006020828403121561255d57600080fd5b600061256b848285016124b8565b91505092915050565b6000806040838503121561258757600080fd5b6000612595858286016124b8565b92505060206125a6858286016124b8565b9150509250929050565b6000806000606084860312156125c557600080fd5b60006125d3868287016124b8565b93505060206125e4868287016124b8565b92505060406125f586828701612536565b9150509250925092565b6000806000806080858703121561261557600080fd5b6000612623878288016124b8565b9450506020612634878288016124b8565b935050604061264587828801612536565b925050606085013567ffffffffffffffff81111561266257600080fd5b61266e8782880161250c565b91505092959194509250565b6000806040838503121561268d57600080fd5b600061269b858286016124b8565b92505060206126ac858286016124cd565b9150509250929050565b600080604083850312156126c957600080fd5b60006126d7858286016124b8565b92505060206126e885828601612536565b9150509250929050565b60006020828403121561270457600080fd5b6000612712848285016124e2565b91505092915050565b60006020828403121561272d57600080fd5b600061273b848285016124f7565b91505092915050565b60006020828403121561275657600080fd5b600061276484828501612536565b91505092915050565b6127768161333c565b82525050565b6127858161334e565b82525050565b6000612796826131e4565b6127a081856131fa565b93506127b08185602086016133bf565b6127b98161358b565b840191505092915050565b60006127cf826131ef565b6127d9818561320b565b93506127e98185602086016133bf565b6127f28161358b565b840191505092915050565b6000612808826131ef565b612812818561321c565b93506128228185602086016133bf565b80840191505092915050565b6000815461283b816133f2565b612845818661321c565b945060018216600081146128605760018114612871576128a4565b60ff198316865281860193506128a4565b61287a856131cf565b60005b8381101561289c5781548189015260018201915060208101905061287d565b838801955050505b50505092915050565b60006128ba60258361321c565b91506128c58261359c565b602582019050919050565b60006128dd601e8361320b565b91506128e8826135eb565b602082019050919050565b600061290060328361320b565b915061290b82613614565b604082019050919050565b600061292360258361320b565b915061292e82613663565b604082019050919050565b6000612946601c8361320b565b9150612951826136b2565b602082019050919050565b6000612969600a8361321c565b9150612974826136db565b600a82019050919050565b600061298c60248361320b565b915061299782613704565b604082019050919050565b60006129af60198361320b565b91506129ba82613753565b602082019050919050565b60006129d260638361321c565b91506129dd8261377c565b606382019050919050565b60006129f5600b8361321c565b9150612a0082613817565b600b82019050919050565b6000612a18602c8361320b565b9150612a2382613840565b604082019050919050565b6000612a3b600d8361321c565b9150612a468261388f565b600d82019050919050565b6000612a5e60388361320b565b9150612a69826138b8565b604082019050919050565b6000612a81602a8361320b565b9150612a8c82613907565b604082019050919050565b6000612aa460298361320b565b9150612aaf82613956565b604082019050919050565b6000612ac7602e8361320b565b9150612ad2826139a5565b604082019050919050565b6000612aea60028361321c565b9150612af5826139f4565b600282019050919050565b6000612b0d60208361320b565b9150612b1882613a1d565b602082019050919050565b6000612b3060318361320b565b9150612b3b82613a46565b604082019050919050565b6000612b53602c8361320b565b9150612b5e82613a95565b604082019050919050565b6000612b76602f8361320b565b9150612b8182613ae4565b604082019050919050565b6000612b99600a8361321c565b9150612ba482613b33565b600a82019050919050565b6000612bbc60218361320b565b9150612bc782613b5c565b604082019050919050565b6000612bdf600a8361321c565b9150612bea82613bab565b600a82019050919050565b6000612c02601d8361321c565b9150612c0d82613bd4565b601d82019050919050565b6000612c2560318361320b565b9150612c3082613bfd565b604082019050919050565b6000612c4860058361321c565b9150612c5382613c4c565b600582019050919050565b612c67816133a6565b82525050565b6000612c7982846127fd565b915081905092915050565b6000612c9082856127fd565b9150612c9c82846127fd565b91508190509392505050565b6000612cb482866127fd565b9150612cc082856127fd565b9150612ccc82846127fd565b9150819050949350505050565b6000612ce5828761282e565b9150612cf182866127fd565b9150612cfd828561282e565b9150612d0982846127fd565b9150612d1482612a2e565b915081905095945050505050565b6000612d2d826128ad565b9150612d3982846127fd565b915081905092915050565b6000612d4f8261295c565b9150612d5b82846127fd565b915081905092915050565b6000612d71826129e8565b9150612d7d82846127fd565b915081905092915050565b6000612d9382612b8c565b9150612d9f82856127fd565b9150612daa826129c5565b9150612db682846127fd565b9150612dc182612add565b91508190509392505050565b6000612dd882612bd2565b9150612de482846127fd565b915081905092915050565b6000612dfa82612bf5565b9150612e0682846127fd565b915081905092915050565b6000612e1c82612c3b565b9150612e2882846127fd565b915081905092915050565b6000602082019050612e48600083018461276d565b92915050565b6000608082019050612e63600083018761276d565b612e70602083018661276d565b612e7d6040830185612c5e565b8181036060830152612e8f818461278b565b905095945050505050565b6000604082019050612eaf600083018561276d565b612ebc6020830184612c5e565b9392505050565b6000602082019050612ed8600083018461277c565b92915050565b60006020820190508181036000830152612ef881846127c4565b905092915050565b60006060820190508181036000830152612f1a81866127c4565b9050612f296020830185612c5e565b612f36604083018461276d565b949350505050565b60006020820190508181036000830152612f57816128d0565b9050919050565b60006020820190508181036000830152612f77816128f3565b9050919050565b60006020820190508181036000830152612f9781612916565b9050919050565b60006020820190508181036000830152612fb781612939565b9050919050565b60006020820190508181036000830152612fd78161297f565b9050919050565b60006020820190508181036000830152612ff7816129a2565b9050919050565b6000602082019050818103600083015261301781612a0b565b9050919050565b6000602082019050818103600083015261303781612a51565b9050919050565b6000602082019050818103600083015261305781612a74565b9050919050565b6000602082019050818103600083015261307781612a97565b9050919050565b6000602082019050818103600083015261309781612aba565b9050919050565b600060208201905081810360008301526130b781612b00565b9050919050565b600060208201905081810360008301526130d781612b23565b9050919050565b600060208201905081810360008301526130f781612b46565b9050919050565b6000602082019050818103600083015261311781612b69565b9050919050565b6000602082019050818103600083015261313781612baf565b9050919050565b6000602082019050818103600083015261315781612c18565b9050919050565b60006020820190506131736000830184612c5e565b92915050565b6000613183613194565b905061318f8282613424565b919050565b6000604051905090565b600067ffffffffffffffff8211156131b9576131b861355c565b5b6131c28261358b565b9050602081019050919050565b60008190508160005260206000209050919050565b600081519050919050565b600081519050919050565b600082825260208201905092915050565b600082825260208201905092915050565b600081905092915050565b6000613232826133a6565b915061323d836133a6565b9250827fffffffffffffffffffffffffffffffffffffffffffffffffffffffffffffffff03821115613272576132716134cf565b5b828201905092915050565b6000613288826133a6565b9150613293836133a6565b9250826132a3576132a26134fe565b5b828204905092915050565b60006132b9826133a6565b91506132c4836133a6565b9250817fffffffffffffffffffffffffffffffffffffffffffffffffffffffffffffffff04831182151516156132fd576132fc6134cf565b5b828202905092915050565b6000613313826133a6565b915061331e836133a6565b925082821015613331576133306134cf565b5b828203905092915050565b600061334782613386565b9050919050565b60008115159050919050565b60007fffffffff0000000000000000000000000000000000000000000000000000000082169050919050565b600073ffffffffffffffffffffffffffffffffffffffff82169050919050565b6000819050919050565b82818337600083830152505050565b60005b838110156133dd5780820151818401526020810190506133c2565b838111156133ec576000848401525b50505050565b6000600282049050600182168061340a57607f821691505b6020821081141561341e5761341d61352d565b5b50919050565b61342d8261358b565b810181811067ffffffffffffffff8211171561344c5761344b61355c565b5b80604052505050565b6000613460826133a6565b91507fffffffffffffffffffffffffffffffffffffffffffffffffffffffffffffffff821415613493576134926134cf565b5b600182019050919050565b60006134a9826133a6565b91506134b4836133a6565b9250826134c4576134c36134fe565b5b828206905092915050565b7f4e487b7100000000000000000000000000000000000000000000000000000000600052601160045260246000fd5b7f4e487b7100000000000000000000000000000000000000000000000000000000600052601260045260246000fd5b7f4e487b7100000000000000000000000000000000000000000000000000000000600052602260045260246000fd5b7f4e487b7100000000000000000000000000000000000000000000000000000000600052604160045260246000fd5b6000601f19601f8301169050919050565b7f68747470733a2f2f6e6674707265766965772e30786465762e636f6465732f3f60008201527f636f64653d000000000000000000000000000000000000000000000000000000602082015250565b7f4f6e6c79203130204e46547320746f206265206d696e746564206d6178210000600082015250565b7f4552433732313a207472616e7366657220746f206e6f6e20455243373231526560008201527f63656976657220696d706c656d656e7465720000000000000000000000000000602082015250565b7f4552433732313a207472616e736665722066726f6d20696e636f72726563742060008201527f6f776e6572000000000000000000000000000000000000000000000000000000602082015250565b7f4552433732313a20746f6b656e20616c7265616479206d696e74656400000000600082015250565b7f54484952445f574f524400000000000000000000000000000000000000000000600082015250565b7f4552433732313a207472616e7366657220746f20746865207a65726f2061646460008201527f7265737300000000000000000000000000000000000000000000000000000000602082015250565b7f4552433732313a20617070726f766520746f2063616c6c657200000000000000600082015250565b7f222c20226465736372697074696f6e223a20224120686967686c79206163636c60008201527f61696d656420636f6c6c656374696f6e206f6620737175617265732e222c202260208201527f696d616765223a2022646174613a696d6167652f7376672b786d6c3b6261736560408201527f36342c0000000000000000000000000000000000000000000000000000000000606082015250565b7f5345434f4e445f574f5244000000000000000000000000000000000000000000600082015250565b7f4552433732313a206f70657261746f7220717565727920666f72206e6f6e657860008201527f697374656e7420746f6b656e0000000000000000000000000000000000000000602082015250565b7f3c2f746578743e3c2f7376673e00000000000000000000000000000000000000600082015250565b7f4552433732313a20617070726f76652063616c6c6572206973206e6f74206f7760008201527f6e6572206e6f7220617070726f76656420666f7220616c6c0000000000000000602082015250565b7f4552433732313a2062616c616e636520717565727920666f7220746865207a6560008201527f726f206164647265737300000000000000000000000000000000000000000000602082015250565b7f4552433732313a206f776e657220717565727920666f72206e6f6e657869737460008201527f656e7420746f6b656e0000000000000000000000000000000000000000000000602082015250565b7f45524337323155524953746f726167653a2055524920736574206f66206e6f6e60008201527f6578697374656e7420746f6b656e000000000000000000000000000000000000602082015250565b7f227d000000000000000000000000000000000000000000000000000000000000600082015250565b7f4552433732313a206d696e7420746f20746865207a65726f2061646472657373600082015250565b7f45524337323155524953746f726167653a2055524920717565727920666f722060008201527f6e6f6e6578697374656e7420746f6b656e000000000000000000000000000000602082015250565b7f4552433732313a20617070726f76656420717565727920666f72206e6f6e657860008201527f697374656e7420746f6b656e0000000000000000000000000000000000000000602082015250565b7f4552433732314d657461646174613a2055524920717565727920666f72206e6f60008201527f6e6578697374656e7420746f6b656e0000000000000000000000000000000000602082015250565b7f7b226e616d65223a202200000000000000000000000000000000000000000000600082015250565b7f4552433732313a20617070726f76616c20746f2063757272656e74206f776e6560008201527f7200000000000000000000000000000000000000000000000000000000000000602082015250565b7f46495253545f574f524400000000000000000000000000000000000000000000600082015250565b7f646174613a6170706c69636174696f6e2f6a736f6e3b6261736536342c000000600082015250565b7f4552433732313a207472616e736665722063616c6c6572206973206e6f74206f60008201527f776e6572206e6f7220617070726f766564000000000000000000000000000000602082015250565b7f434f4c4f52000000000000000000000000000000000000000000000000000000600082015250565b613c7e8161333c565b8114613c8957600080fd5b50565b613c958161334e565b8114613ca057600080fd5b50565b613cac8161335a565b8114613cb757600080fd5b50565b613cc3816133a6565b8114613cce57600080fd5b5056fe416e204e465420772f20494420257320686173206265656e206d696e74656420746f2025734142434445464748494a4b4c4d4e4f505152535455565758595a6162636465666768696a6b6c6d6e6f707172737475767778797a303132333435363738392b2fa2646970667358221220df841f891b1d3eead9578dcfd031bc6f7492cb1ca07585b01509d65a059c5f9d64736f6c634300080400333c73766720786d6c6e733d27687474703a2f2f7777772e77332e6f72672f323030302f73766727207072657365727665417370656374526174696f3d27784d696e594d696e206d656574272076696577426f783d273020302033353020333530273e3c7374796c653e2e62617365207b2066696c6c3a2077686974653b20666f6e742d66616d696c793a2073657269663b20666f6e742d73697a653a20323470783b207d3c2f7374796c653e3c726563742077696474683d273130302527206865696768743d2731303025272066696c6c3d27272f3e3c7465787420783d273530252720793d273530252720636c6173733d27626173652720646f6d696e616e742d626173656c696e653d276d6964646c652720746578742d616e63686f723d276d6964646c65273e",
  "linkReferences": {},
  "deployedLinkReferences": {}
}